{"contracts/SecureFileTransfer.sol":{"SecureFileTransfer":{"abi":[{"anonymous":false,"inputs":[{"indexed":false,"internalType":"string","name":"cid","type":"string"},{"indexed":false,"internalType":"address","name":"grantedTo","type":"address"}],"name":"AccessGranted","type":"event"},{"anonymous":false,"inputs":[{"indexed":false,"internalType":"string","name":"cid","type":"string"},{"indexed":false,"internalType":"address","name":"owner","type":"address"}],"name":"FileStored","type":"event"},{"anonymous":false,"inputs":[{"indexed":false,"internalType":"address","name":"user","type":"address"},{"indexed":false,"internalType":"string","name":"role","type":"string"}],"name":"UserRegistered","type":"event"},{"inputs":[{"internalType":"string","name":"_cid","type":"string"}],"name":"getFile","outputs":[{"internalType":"string","name":"","type":"string"}],"stateMutability":"view","type":"function"},{"inputs":[{"internalType":"string","name":"_cid","type":"string"},{"internalType":"address","name":"_recipient","type":"address"}],"name":"grantAccess","outputs":[],"stateMutability":"nonpayable","type":"function"},{"inputs":[{"internalType":"address","name":"_user","type":"address"},{"internalType":"string","name":"_role","type":"string"}],"name":"registerUser","outputs":[],"stateMutability":"nonpayable","type":"function"},{"inputs":[{"internalType":"string","name":"_cid","type":"string"}],"name":"storeFile","outputs":[],"stateMutability":"nonpayable","type":"function"}],"evm":{"bytecode":{"linkReferences":{},"object":"608060405234801561001057600080fd5b50611331806100206000396000f3fe608060405234801561001057600080fd5b506004361061004c5760003560e01c80630ea126f914610051578063e0876aa81461006d578063e602406a1461009d578063f37c215e146100b9575b600080fd5b61006b60048036038101906100669190610a06565b6100d5565b005b61008760048036038101906100829190610a62565b61026f565b6040516100949190610b2a565b60405180910390f35b6100b760048036038101906100b29190610a62565b61043c565b005b6100d360048036038101906100ce9190610b4c565b61067c565b005b6040516020016100e490610bff565b60405160208183030381529060405280519060200120600160003373ffffffffffffffffffffffffffffffffffffffff1673ffffffffffffffffffffffffffffffffffffffff16815260200190815260200160002060000160405160200161014c9190610d0c565b60405160208183030381529060405280519060200120146101a2576040517f08c379a000000000000000000000000000000000000000000000000000000000815260040161019990610d95565b60405180910390fd5b604051806040016040528082815260200160011515815250600160008473ffffffffffffffffffffffffffffffffffffffff1673ffffffffffffffffffffffffffffffffffffffff168152602001908152602001600020600082015181600001908161020e9190610f56565b5060208201518160010160006101000a81548160ff0219169083151502179055509050507f48cac28ad4dc618e15f4c2dd5e97751182f166de97b25618318b2112aa951a2f8282604051610263929190611037565b60405180910390a15050565b6060600080836040516102829190611098565b9081526020016040518091039020600001805461029e90610c43565b9050036102e0576040517f08c379a00000000000000000000000000000000000000000000000000000000081526004016102d7906110fb565b60405180910390fd5b6000826040516102f09190611098565b908152602001604051809103902060020160003373ffffffffffffffffffffffffffffffffffffffff1673ffffffffffffffffffffffffffffffffffffffff16815260200190815260200160002060009054906101000a900460ff1661038b576040517f08c379a000000000000000000000000000000000000000000000000000000000815260040161038290611167565b60405180910390fd5b60008260405161039b9190611098565b908152602001604051809103902060000180546103b790610c43565b80601f01602080910402602001604051908101604052809291908181526020018280546103e390610c43565b80156104305780601f1061040557610100808354040283529160200191610430565b820191906000526020600020905b81548152906001019060200180831161041357829003601f168201915b50505050509050919050565b600160003373ffffffffffffffffffffffffffffffffffffffff1673ffffffffffffffffffffffffffffffffffffffff16815260200190815260200160002060010160009054906101000a900460ff166104cb576040517f08c379a00000000000000000000000000000000000000000000000000000000081526004016104c2906111d3565b60405180910390fd5b600080826040516104dc9190611098565b908152602001604051809103902060000180546104f890610c43565b90501461053a576040517f08c379a00000000000000000000000000000000000000000000000000000000081526004016105319061123f565b60405180910390fd5b8060008260405161054b9190611098565b908152602001604051809103902060000190816105689190610f56565b503360008260405161057a9190611098565b908152602001604051809103902060010160006101000a81548173ffffffffffffffffffffffffffffffffffffffff021916908373ffffffffffffffffffffffffffffffffffffffff16021790555060016000826040516105db9190611098565b908152602001604051809103902060020160003373ffffffffffffffffffffffffffffffffffffffff1673ffffffffffffffffffffffffffffffffffffffff16815260200190815260200160002060006101000a81548160ff0219169083151502179055507fd54c01e3d063d4ead7a8b91010455a57752a2bc49d8794268b36b1f67aa30546813360405161067192919061125f565b60405180910390a150565b6000808360405161068d9190611098565b908152602001604051809103902060000180546106a990610c43565b9050036106eb576040517f08c379a00000000000000000000000000000000000000000000000000000000081526004016106e2906110fb565b60405180910390fd5b6000826040516106fb9190611098565b908152602001604051809103902060010160009054906101000a900473ffffffffffffffffffffffffffffffffffffffff1673ffffffffffffffffffffffffffffffffffffffff163373ffffffffffffffffffffffffffffffffffffffff161461079a576040517f08c379a0000000000000000000000000000000000000000000000000000000008152600401610791906112db565b60405180910390fd5b60016000836040516107ac9190611098565b908152602001604051809103902060020160008373ffffffffffffffffffffffffffffffffffffffff1673ffffffffffffffffffffffffffffffffffffffff16815260200190815260200160002060006101000a81548160ff0219169083151502179055507f780f596ecb91e1e030f57631a828b4c1f227615c1e11422248348930f6d2160c828260405161084292919061125f565b60405180910390a15050565b6000604051905090565b600080fd5b600080fd5b600073ffffffffffffffffffffffffffffffffffffffff82169050919050565b600061088d82610862565b9050919050565b61089d81610882565b81146108a857600080fd5b50565b6000813590506108ba81610894565b92915050565b600080fd5b600080fd5b6000601f19601f8301169050919050565b7f4e487b7100000000000000000000000000000000000000000000000000000000600052604160045260246000fd5b610913826108ca565b810181811067ffffffffffffffff82111715610932576109316108db565b5b80604052505050565b600061094561084e565b9050610951828261090a565b919050565b600067ffffffffffffffff821115610971576109706108db565b5b61097a826108ca565b9050602081019050919050565b82818337600083830152505050565b60006109a96109a484610956565b61093b565b9050828152602081018484840111156109c5576109c46108c5565b5b6109d0848285610987565b509392505050565b600082601f8301126109ed576109ec6108c0565b5b81356109fd848260208601610996565b91505092915050565b60008060408385031215610a1d57610a1c610858565b5b6000610a2b858286016108ab565b925050602083013567ffffffffffffffff811115610a4c57610a4b61085d565b5b610a58858286016109d8565b9150509250929050565b600060208284031215610a7857610a77610858565b5b600082013567ffffffffffffffff811115610a9657610a9561085d565b5b610aa2848285016109d8565b91505092915050565b600081519050919050565b600082825260208201905092915050565b60005b83811015610ae5578082015181840152602081019050610aca565b60008484015250505050565b6000610afc82610aab565b610b068185610ab6565b9350610b16818560208601610ac7565b610b1f816108ca565b840191505092915050565b60006020820190508181036000830152610b448184610af1565b905092915050565b60008060408385031215610b6357610b62610858565b5b600083013567ffffffffffffffff811115610b8157610b8061085d565b5b610b8d858286016109d8565b9250506020610b9e858286016108ab565b9150509250929050565b600081905092915050565b7f41646d696e000000000000000000000000000000000000000000000000000000600082015250565b6000610be9600583610ba8565b9150610bf482610bb3565b600582019050919050565b6000610c0a82610bdc565b9150819050919050565b7f4e487b7100000000000000000000000000000000000000000000000000000000600052602260045260246000fd5b60006002820490506001821680610c5b57607f821691505b602082108103610c6e57610c6d610c14565b5b50919050565b60008190508160005260206000209050919050565b60008154610c9681610c43565b610ca08186610ba8565b94506001821660008114610cbb5760018114610cd057610d03565b60ff1983168652811515820286019350610d03565b610cd985610c74565b60005b83811015610cfb57815481890152600182019150602081019050610cdc565b838801955050505b50505092915050565b6000610d188284610c89565b915081905092915050565b7f4f6e6c792041646d696e732063616e20706572666f726d20746869732061637460008201527f696f6e0000000000000000000000000000000000000000000000000000000000602082015250565b6000610d7f602383610ab6565b9150610d8a82610d23565b604082019050919050565b60006020820190508181036000830152610dae81610d72565b9050919050565b60006020601f8301049050919050565b600082821b905092915050565b600060088302610e027fffffffffffffffffffffffffffffffffffffffffffffffffffffffffffffffff82610dc5565b610e0c8683610dc5565b95508019841693508086168417925050509392505050565b6000819050919050565b6000819050919050565b6000610e53610e4e610e4984610e24565b610e2e565b610e24565b9050919050565b6000819050919050565b610e6d83610e38565b610e81610e7982610e5a565b848454610dd2565b825550505050565b600090565b610e96610e89565b610ea1818484610e64565b505050565b5b81811015610ec557610eba600082610e8e565b600181019050610ea7565b5050565b601f821115610f0a57610edb81610c74565b610ee484610db5565b81016020851015610ef3578190505b610f07610eff85610db5565b830182610ea6565b50505b505050565b600082821c905092915050565b6000610f2d60001984600802610f0f565b1980831691505092915050565b6000610f468383610f1c565b9150826002028217905092915050565b610f5f82610aab565b67ffffffffffffffff811115610f7857610f776108db565b5b610f828254610c43565b610f8d828285610ec9565b600060209050601f831160018114610fc05760008415610fae578287015190505b610fb88582610f3a565b865550611020565b601f198416610fce86610c74565b60005b82811015610ff657848901518255600182019150602085019450602081019050610fd1565b86831015611013578489015161100f601f891682610f1c565b8355505b6001600288020188555050505b505050505050565b61103181610882565b82525050565b600060408201905061104c6000830185611028565b818103602083015261105e8184610af1565b90509392505050565b600061107282610aab565b61107c8185610ba8565b935061108c818560208601610ac7565b80840191505092915050565b60006110a48284611067565b915081905092915050565b7f46696c6520646f6573206e6f7420657869737400000000000000000000000000600082015250565b60006110e5601383610ab6565b91506110f0826110af565b602082019050919050565b60006020820190508181036000830152611114816110d8565b9050919050565b7f4163636573732064656e69656400000000000000000000000000000000000000600082015250565b6000611151600d83610ab6565b915061115c8261111b565b602082019050919050565b6000602082019050818103600083015261118081611144565b9050919050565b7f55736572206e6f74207265676973746572656400000000000000000000000000600082015250565b60006111bd601383610ab6565b91506111c882611187565b602082019050919050565b600060208201905081810360008301526111ec816111b0565b9050919050565b7f46696c6520616c72656164792065786973747300000000000000000000000000600082015250565b6000611229601383610ab6565b9150611234826111f3565b602082019050919050565b600060208201905081810360008301526112588161121c565b9050919050565b600060408201905081810360008301526112798185610af1565b90506112886020830184611028565b9392505050565b7f4f6e6c79206f776e65722063616e206772616e74206163636573730000000000600082015250565b60006112c5601b83610ab6565b91506112d08261128f565b602082019050919050565b600060208201905081810360008301526112f4816112b8565b905091905056fea264697066735822122015c6ca8c4eca98dec729f1e051245d89dc13a6ae9553e005c8799ec041879dd364736f6c63430008130033","opcodes":"PUSH1 0x80 PUSH1 0x40 MSTORE CALLVALUE DUP1 ISZERO PUSH2 0x10 JUMPI PUSH1 0x0 DUP1 REVERT JUMPDEST POP PUSH2 0x1331 DUP1 PUSH2 0x20 PUSH1 0x0 CODECOPY PUSH1 0x0 RETURN INVALID PUSH1 0x80 PUSH1 0x40 MSTORE CALLVALUE DUP1 ISZERO PUSH2 0x10 JUMPI PUSH1 0x0 DUP1 REVERT JUMPDEST POP PUSH1 0x4 CALLDATASIZE LT PUSH2 0x4C JUMPI PUSH1 0x0 CALLDATALOAD PUSH1 0xE0 SHR DUP1 PUSH4 0xEA126F9 EQ PUSH2 0x51 JUMPI DUP1 PUSH4 0xE0876AA8 EQ PUSH2 0x6D JUMPI DUP1 PUSH4 0xE602406A EQ PUSH2 0x9D JUMPI DUP1 PUSH4 0xF37C215E EQ PUSH2 0xB9 JUMPI JUMPDEST PUSH1 0x0 DUP1 REVERT JUMPDEST PUSH2 0x6B PUSH1 0x4 DUP1 CALLDATASIZE SUB DUP2 ADD SWAP1 PUSH2 0x66 SWAP2 SWAP1 PUSH2 0xA06 JUMP JUMPDEST PUSH2 0xD5 JUMP JUMPDEST STOP JUMPDEST PUSH2 0x87 PUSH1 0x4 DUP1 CALLDATASIZE SUB DUP2 ADD SWAP1 PUSH2 0x82 SWAP2 SWAP1 PUSH2 0xA62 JUMP JUMPDEST PUSH2 0x26F JUMP JUMPDEST PUSH1 0x40 MLOAD PUSH2 0x94 SWAP2 SWAP1 PUSH2 0xB2A JUMP JUMPDEST PUSH1 0x40 MLOAD DUP1 SWAP2 SUB SWAP1 RETURN JUMPDEST PUSH2 0xB7 PUSH1 0x4 DUP1 CALLDATASIZE SUB DUP2 ADD SWAP1 PUSH2 0xB2 SWAP2 SWAP1 PUSH2 0xA62 JUMP JUMPDEST PUSH2 0x43C JUMP JUMPDEST STOP JUMPDEST PUSH2 0xD3 PUSH1 0x4 DUP1 CALLDATASIZE SUB DUP2 ADD SWAP1 PUSH2 0xCE SWAP2 SWAP1 PUSH2 0xB4C JUMP JUMPDEST PUSH2 0x67C JUMP JUMPDEST STOP JUMPDEST PUSH1 0x40 MLOAD PUSH1 0x20 ADD PUSH2 0xE4 SWAP1 PUSH2 0xBFF JUMP JUMPDEST PUSH1 0x40 MLOAD PUSH1 0x20 DUP2 DUP4 SUB SUB DUP2 MSTORE SWAP1 PUSH1 0x40 MSTORE DUP1 MLOAD SWAP1 PUSH1 0x20 ADD KECCAK256 PUSH1 0x1 PUSH1 0x0 CALLER PUSH20 0xFFFFFFFFFFFFFFFFFFFFFFFFFFFFFFFFFFFFFFFF AND PUSH20 0xFFFFFFFFFFFFFFFFFFFFFFFFFFFFFFFFFFFFFFFF AND DUP2 MSTORE PUSH1 0x20 ADD SWAP1 DUP2 MSTORE PUSH1 0x20 ADD PUSH1 0x0 KECCAK256 PUSH1 0x0 ADD PUSH1 0x40 MLOAD PUSH1 0x20 ADD PUSH2 0x14C SWAP2 SWAP1 PUSH2 0xD0C JUMP JUMPDEST PUSH1 0x40 MLOAD PUSH1 0x20 DUP2 DUP4 SUB SUB DUP2 MSTORE SWAP1 PUSH1 0x40 MSTORE DUP1 MLOAD SWAP1 PUSH1 0x20 ADD KECCAK256 EQ PUSH2 0x1A2 JUMPI PUSH1 0x40 MLOAD PUSH32 0x8C379A000000000000000000000000000000000000000000000000000000000 DUP2 MSTORE PUSH1 0x4 ADD PUSH2 0x199 SWAP1 PUSH2 0xD95 JUMP JUMPDEST PUSH1 0x40 MLOAD DUP1 SWAP2 SUB SWAP1 REVERT JUMPDEST PUSH1 0x40 MLOAD DUP1 PUSH1 0x40 ADD PUSH1 0x40 MSTORE DUP1 DUP3 DUP2 MSTORE PUSH1 0x20 ADD PUSH1 0x1 ISZERO ISZERO DUP2 MSTORE POP PUSH1 0x1 PUSH1 0x0 DUP5 PUSH20 0xFFFFFFFFFFFFFFFFFFFFFFFFFFFFFFFFFFFFFFFF AND PUSH20 0xFFFFFFFFFFFFFFFFFFFFFFFFFFFFFFFFFFFFFFFF AND DUP2 MSTORE PUSH1 0x20 ADD SWAP1 DUP2 MSTORE PUSH1 0x20 ADD PUSH1 0x0 KECCAK256 PUSH1 0x0 DUP3 ADD MLOAD DUP2 PUSH1 0x0 ADD SWAP1 DUP2 PUSH2 0x20E SWAP2 SWAP1 PUSH2 0xF56 JUMP JUMPDEST POP PUSH1 0x20 DUP3 ADD MLOAD DUP2 PUSH1 0x1 ADD PUSH1 0x0 PUSH2 0x100 EXP DUP2 SLOAD DUP2 PUSH1 0xFF MUL NOT AND SWAP1 DUP4 ISZERO ISZERO MUL OR SWAP1 SSTORE POP SWAP1 POP POP PUSH32 0x48CAC28AD4DC618E15F4C2DD5E97751182F166DE97B25618318B2112AA951A2F DUP3 DUP3 PUSH1 0x40 MLOAD PUSH2 0x263 SWAP3 SWAP2 SWAP1 PUSH2 0x1037 JUMP JUMPDEST PUSH1 0x40 MLOAD DUP1 SWAP2 SUB SWAP1 LOG1 POP POP JUMP JUMPDEST PUSH1 0x60 PUSH1 0x0 DUP1 DUP4 PUSH1 0x40 MLOAD PUSH2 0x282 SWAP2 SWAP1 PUSH2 0x1098 JUMP JUMPDEST SWAP1 DUP2 MSTORE PUSH1 0x20 ADD PUSH1 0x40 MLOAD DUP1 SWAP2 SUB SWAP1 KECCAK256 PUSH1 0x0 ADD DUP1 SLOAD PUSH2 0x29E SWAP1 PUSH2 0xC43 JUMP JUMPDEST SWAP1 POP SUB PUSH2 0x2E0 JUMPI PUSH1 0x40 MLOAD PUSH32 0x8C379A000000000000000000000000000000000000000000000000000000000 DUP2 MSTORE PUSH1 0x4 ADD PUSH2 0x2D7 SWAP1 PUSH2 0x10FB JUMP JUMPDEST PUSH1 0x40 MLOAD DUP1 SWAP2 SUB SWAP1 REVERT JUMPDEST PUSH1 0x0 DUP3 PUSH1 0x40 MLOAD PUSH2 0x2F0 SWAP2 SWAP1 PUSH2 0x1098 JUMP JUMPDEST SWAP1 DUP2 MSTORE PUSH1 0x20 ADD PUSH1 0x40 MLOAD DUP1 SWAP2 SUB SWAP1 KECCAK256 PUSH1 0x2 ADD PUSH1 0x0 CALLER PUSH20 0xFFFFFFFFFFFFFFFFFFFFFFFFFFFFFFFFFFFFFFFF AND PUSH20 0xFFFFFFFFFFFFFFFFFFFFFFFFFFFFFFFFFFFFFFFF AND DUP2 MSTORE PUSH1 0x20 ADD SWAP1 DUP2 MSTORE PUSH1 0x20 ADD PUSH1 0x0 KECCAK256 PUSH1 0x0 SWAP1 SLOAD SWAP1 PUSH2 0x100 EXP SWAP1 DIV PUSH1 0xFF AND PUSH2 0x38B JUMPI PUSH1 0x40 MLOAD PUSH32 0x8C379A000000000000000000000000000000000000000000000000000000000 DUP2 MSTORE PUSH1 0x4 ADD PUSH2 0x382 SWAP1 PUSH2 0x1167 JUMP JUMPDEST PUSH1 0x40 MLOAD DUP1 SWAP2 SUB SWAP1 REVERT JUMPDEST PUSH1 0x0 DUP3 PUSH1 0x40 MLOAD PUSH2 0x39B SWAP2 SWAP1 PUSH2 0x1098 JUMP JUMPDEST SWAP1 DUP2 MSTORE PUSH1 0x20 ADD PUSH1 0x40 MLOAD DUP1 SWAP2 SUB SWAP1 KECCAK256 PUSH1 0x0 ADD DUP1 SLOAD PUSH2 0x3B7 SWAP1 PUSH2 0xC43 JUMP JUMPDEST DUP1 PUSH1 0x1F ADD PUSH1 0x20 DUP1 SWAP2 DIV MUL PUSH1 0x20 ADD PUSH1 0x40 MLOAD SWAP1 DUP2 ADD PUSH1 0x40 MSTORE DUP1 SWAP3 SWAP2 SWAP1 DUP2 DUP2 MSTORE PUSH1 0x20 ADD DUP3 DUP1 SLOAD PUSH2 0x3E3 SWAP1 PUSH2 0xC43 JUMP JUMPDEST DUP1 ISZERO PUSH2 0x430 JUMPI DUP1 PUSH1 0x1F LT PUSH2 0x405 JUMPI PUSH2 0x100 DUP1 DUP4 SLOAD DIV MUL DUP4 MSTORE SWAP2 PUSH1 0x20 ADD SWAP2 PUSH2 0x430 JUMP JUMPDEST DUP3 ADD SWAP2 SWAP1 PUSH1 0x0 MSTORE PUSH1 0x20 PUSH1 0x0 KECCAK256 SWAP1 JUMPDEST DUP2 SLOAD DUP2 MSTORE SWAP1 PUSH1 0x1 ADD SWAP1 PUSH1 0x20 ADD DUP1 DUP4 GT PUSH2 0x413 JUMPI DUP3 SWAP1 SUB PUSH1 0x1F AND DUP3 ADD SWAP2 JUMPDEST POP POP POP POP POP SWAP1 POP SWAP2 SWAP1 POP JUMP JUMPDEST PUSH1 0x1 PUSH1 0x0 CALLER PUSH20 0xFFFFFFFFFFFFFFFFFFFFFFFFFFFFFFFFFFFFFFFF AND PUSH20 0xFFFFFFFFFFFFFFFFFFFFFFFFFFFFFFFFFFFFFFFF AND DUP2 MSTORE PUSH1 0x20 ADD SWAP1 DUP2 MSTORE PUSH1 0x20 ADD PUSH1 0x0 KECCAK256 PUSH1 0x1 ADD PUSH1 0x0 SWAP1 SLOAD SWAP1 PUSH2 0x100 EXP SWAP1 DIV PUSH1 0xFF AND PUSH2 0x4CB JUMPI PUSH1 0x40 MLOAD PUSH32 0x8C379A000000000000000000000000000000000000000000000000000000000 DUP2 MSTORE PUSH1 0x4 ADD PUSH2 0x4C2 SWAP1 PUSH2 0x11D3 JUMP JUMPDEST PUSH1 0x40 MLOAD DUP1 SWAP2 SUB SWAP1 REVERT JUMPDEST PUSH1 0x0 DUP1 DUP3 PUSH1 0x40 MLOAD PUSH2 0x4DC SWAP2 SWAP1 PUSH2 0x1098 JUMP JUMPDEST SWAP1 DUP2 MSTORE PUSH1 0x20 ADD PUSH1 0x40 MLOAD DUP1 SWAP2 SUB SWAP1 KECCAK256 PUSH1 0x0 ADD DUP1 SLOAD PUSH2 0x4F8 SWAP1 PUSH2 0xC43 JUMP JUMPDEST SWAP1 POP EQ PUSH2 0x53A JUMPI PUSH1 0x40 MLOAD PUSH32 0x8C379A000000000000000000000000000000000000000000000000000000000 DUP2 MSTORE PUSH1 0x4 ADD PUSH2 0x531 SWAP1 PUSH2 0x123F JUMP JUMPDEST PUSH1 0x40 MLOAD DUP1 SWAP2 SUB SWAP1 REVERT JUMPDEST DUP1 PUSH1 0x0 DUP3 PUSH1 0x40 MLOAD PUSH2 0x54B SWAP2 SWAP1 PUSH2 0x1098 JUMP JUMPDEST SWAP1 DUP2 MSTORE PUSH1 0x20 ADD PUSH1 0x40 MLOAD DUP1 SWAP2 SUB SWAP1 KECCAK256 PUSH1 0x0 ADD SWAP1 DUP2 PUSH2 0x568 SWAP2 SWAP1 PUSH2 0xF56 JUMP JUMPDEST POP CALLER PUSH1 0x0 DUP3 PUSH1 0x40 MLOAD PUSH2 0x57A SWAP2 SWAP1 PUSH2 0x1098 JUMP JUMPDEST SWAP1 DUP2 MSTORE PUSH1 0x20 ADD PUSH1 0x40 MLOAD DUP1 SWAP2 SUB SWAP1 KECCAK256 PUSH1 0x1 ADD PUSH1 0x0 PUSH2 0x100 EXP DUP2 SLOAD DUP2 PUSH20 0xFFFFFFFFFFFFFFFFFFFFFFFFFFFFFFFFFFFFFFFF MUL NOT AND SWAP1 DUP4 PUSH20 0xFFFFFFFFFFFFFFFFFFFFFFFFFFFFFFFFFFFFFFFF AND MUL OR SWAP1 SSTORE POP PUSH1 0x1 PUSH1 0x0 DUP3 PUSH1 0x40 MLOAD PUSH2 0x5DB SWAP2 SWAP1 PUSH2 0x1098 JUMP JUMPDEST SWAP1 DUP2 MSTORE PUSH1 0x20 ADD PUSH1 0x40 MLOAD DUP1 SWAP2 SUB SWAP1 KECCAK256 PUSH1 0x2 ADD PUSH1 0x0 CALLER PUSH20 0xFFFFFFFFFFFFFFFFFFFFFFFFFFFFFFFFFFFFFFFF AND PUSH20 0xFFFFFFFFFFFFFFFFFFFFFFFFFFFFFFFFFFFFFFFF AND DUP2 MSTORE PUSH1 0x20 ADD SWAP1 DUP2 MSTORE PUSH1 0x20 ADD PUSH1 0x0 KECCAK256 PUSH1 0x0 PUSH2 0x100 EXP DUP2 SLOAD DUP2 PUSH1 0xFF MUL NOT AND SWAP1 DUP4 ISZERO ISZERO MUL OR SWAP1 SSTORE POP PUSH32 0xD54C01E3D063D4EAD7A8B91010455A57752A2BC49D8794268B36B1F67AA30546 DUP2 CALLER PUSH1 0x40 MLOAD PUSH2 0x671 SWAP3 SWAP2 SWAP1 PUSH2 0x125F JUMP JUMPDEST PUSH1 0x40 MLOAD DUP1 SWAP2 SUB SWAP1 LOG1 POP JUMP JUMPDEST PUSH1 0x0 DUP1 DUP4 PUSH1 0x40 MLOAD PUSH2 0x68D SWAP2 SWAP1 PUSH2 0x1098 JUMP JUMPDEST SWAP1 DUP2 MSTORE PUSH1 0x20 ADD PUSH1 0x40 MLOAD DUP1 SWAP2 SUB SWAP1 KECCAK256 PUSH1 0x0 ADD DUP1 SLOAD PUSH2 0x6A9 SWAP1 PUSH2 0xC43 JUMP JUMPDEST SWAP1 POP SUB PUSH2 0x6EB JUMPI PUSH1 0x40 MLOAD PUSH32 0x8C379A000000000000000000000000000000000000000000000000000000000 DUP2 MSTORE PUSH1 0x4 ADD PUSH2 0x6E2 SWAP1 PUSH2 0x10FB JUMP JUMPDEST PUSH1 0x40 MLOAD DUP1 SWAP2 SUB SWAP1 REVERT JUMPDEST PUSH1 0x0 DUP3 PUSH1 0x40 MLOAD PUSH2 0x6FB SWAP2 SWAP1 PUSH2 0x1098 JUMP JUMPDEST SWAP1 DUP2 MSTORE PUSH1 0x20 ADD PUSH1 0x40 MLOAD DUP1 SWAP2 SUB SWAP1 KECCAK256 PUSH1 0x1 ADD PUSH1 0x0 SWAP1 SLOAD SWAP1 PUSH2 0x100 EXP SWAP1 DIV PUSH20 0xFFFFFFFFFFFFFFFFFFFFFFFFFFFFFFFFFFFFFFFF AND PUSH20 0xFFFFFFFFFFFFFFFFFFFFFFFFFFFFFFFFFFFFFFFF AND CALLER PUSH20 0xFFFFFFFFFFFFFFFFFFFFFFFFFFFFFFFFFFFFFFFF AND EQ PUSH2 0x79A JUMPI PUSH1 0x40 MLOAD PUSH32 0x8C379A000000000000000000000000000000000000000000000000000000000 DUP2 MSTORE PUSH1 0x4 ADD PUSH2 0x791 SWAP1 PUSH2 0x12DB JUMP JUMPDEST PUSH1 0x40 MLOAD DUP1 SWAP2 SUB SWAP1 REVERT JUMPDEST PUSH1 0x1 PUSH1 0x0 DUP4 PUSH1 0x40 MLOAD PUSH2 0x7AC SWAP2 SWAP1 PUSH2 0x1098 JUMP JUMPDEST SWAP1 DUP2 MSTORE PUSH1 0x20 ADD PUSH1 0x40 MLOAD DUP1 SWAP2 SUB SWAP1 KECCAK256 PUSH1 0x2 ADD PUSH1 0x0 DUP4 PUSH20 0xFFFFFFFFFFFFFFFFFFFFFFFFFFFFFFFFFFFFFFFF AND PUSH20 0xFFFFFFFFFFFFFFFFFFFFFFFFFFFFFFFFFFFFFFFF AND DUP2 MSTORE PUSH1 0x20 ADD SWAP1 DUP2 MSTORE PUSH1 0x20 ADD PUSH1 0x0 KECCAK256 PUSH1 0x0 PUSH2 0x100 EXP DUP2 SLOAD DUP2 PUSH1 0xFF MUL NOT AND SWAP1 DUP4 ISZERO ISZERO MUL OR SWAP1 SSTORE POP PUSH32 0x780F596ECB91E1E030F57631A828B4C1F227615C1E11422248348930F6D2160C DUP3 DUP3 PUSH1 0x40 MLOAD PUSH2 0x842 SWAP3 SWAP2 SWAP1 PUSH2 0x125F JUMP JUMPDEST PUSH1 0x40 MLOAD DUP1 SWAP2 SUB SWAP1 LOG1 POP POP JUMP JUMPDEST PUSH1 0x0 PUSH1 0x40 MLOAD SWAP1 POP SWAP1 JUMP JUMPDEST PUSH1 0x0 DUP1 REVERT JUMPDEST PUSH1 0x0 DUP1 REVERT JUMPDEST PUSH1 0x0 PUSH20 0xFFFFFFFFFFFFFFFFFFFFFFFFFFFFFFFFFFFFFFFF DUP3 AND SWAP1 POP SWAP2 SWAP1 POP JUMP JUMPDEST PUSH1 0x0 PUSH2 0x88D DUP3 PUSH2 0x862 JUMP JUMPDEST SWAP1 POP SWAP2 SWAP1 POP JUMP JUMPDEST PUSH2 0x89D DUP2 PUSH2 0x882 JUMP JUMPDEST DUP2 EQ PUSH2 0x8A8 JUMPI PUSH1 0x0 DUP1 REVERT JUMPDEST POP JUMP JUMPDEST PUSH1 0x0 DUP2 CALLDATALOAD SWAP1 POP PUSH2 0x8BA DUP2 PUSH2 0x894 JUMP JUMPDEST SWAP3 SWAP2 POP POP JUMP JUMPDEST PUSH1 0x0 DUP1 REVERT JUMPDEST PUSH1 0x0 DUP1 REVERT JUMPDEST PUSH1 0x0 PUSH1 0x1F NOT PUSH1 0x1F DUP4 ADD AND SWAP1 POP SWAP2 SWAP1 POP JUMP JUMPDEST PUSH32 0x4E487B7100000000000000000000000000000000000000000000000000000000 PUSH1 0x0 MSTORE PUSH1 0x41 PUSH1 0x4 MSTORE PUSH1 0x24 PUSH1 0x0 REVERT JUMPDEST PUSH2 0x913 DUP3 PUSH2 0x8CA JUMP JUMPDEST DUP2 ADD DUP2 DUP2 LT PUSH8 0xFFFFFFFFFFFFFFFF DUP3 GT OR ISZERO PUSH2 0x932 JUMPI PUSH2 0x931 PUSH2 0x8DB JUMP JUMPDEST JUMPDEST DUP1 PUSH1 0x40 MSTORE POP POP POP JUMP JUMPDEST PUSH1 0x0 PUSH2 0x945 PUSH2 0x84E JUMP JUMPDEST SWAP1 POP PUSH2 0x951 DUP3 DUP3 PUSH2 0x90A JUMP JUMPDEST SWAP2 SWAP1 POP JUMP JUMPDEST PUSH1 0x0 PUSH8 0xFFFFFFFFFFFFFFFF DUP3 GT ISZERO PUSH2 0x971 JUMPI PUSH2 0x970 PUSH2 0x8DB JUMP JUMPDEST JUMPDEST PUSH2 0x97A DUP3 PUSH2 0x8CA JUMP JUMPDEST SWAP1 POP PUSH1 0x20 DUP2 ADD SWAP1 POP SWAP2 SWAP1 POP JUMP JUMPDEST DUP3 DUP2 DUP4 CALLDATACOPY PUSH1 0x0 DUP4 DUP4 ADD MSTORE POP POP POP JUMP JUMPDEST PUSH1 0x0 PUSH2 0x9A9 PUSH2 0x9A4 DUP5 PUSH2 0x956 JUMP JUMPDEST PUSH2 0x93B JUMP JUMPDEST SWAP1 POP DUP3 DUP2 MSTORE PUSH1 0x20 DUP2 ADD DUP5 DUP5 DUP5 ADD GT ISZERO PUSH2 0x9C5 JUMPI PUSH2 0x9C4 PUSH2 0x8C5 JUMP JUMPDEST JUMPDEST PUSH2 0x9D0 DUP5 DUP3 DUP6 PUSH2 0x987 JUMP JUMPDEST POP SWAP4 SWAP3 POP POP POP JUMP JUMPDEST PUSH1 0x0 DUP3 PUSH1 0x1F DUP4 ADD SLT PUSH2 0x9ED JUMPI PUSH2 0x9EC PUSH2 0x8C0 JUMP JUMPDEST JUMPDEST DUP2 CALLDATALOAD PUSH2 0x9FD DUP5 DUP3 PUSH1 0x20 DUP7 ADD PUSH2 0x996 JUMP JUMPDEST SWAP2 POP POP SWAP3 SWAP2 POP POP JUMP JUMPDEST PUSH1 0x0 DUP1 PUSH1 0x40 DUP4 DUP6 SUB SLT ISZERO PUSH2 0xA1D JUMPI PUSH2 0xA1C PUSH2 0x858 JUMP JUMPDEST JUMPDEST PUSH1 0x0 PUSH2 0xA2B DUP6 DUP3 DUP7 ADD PUSH2 0x8AB JUMP JUMPDEST SWAP3 POP POP PUSH1 0x20 DUP4 ADD CALLDATALOAD PUSH8 0xFFFFFFFFFFFFFFFF DUP2 GT ISZERO PUSH2 0xA4C JUMPI PUSH2 0xA4B PUSH2 0x85D JUMP JUMPDEST JUMPDEST PUSH2 0xA58 DUP6 DUP3 DUP7 ADD PUSH2 0x9D8 JUMP JUMPDEST SWAP2 POP POP SWAP3 POP SWAP3 SWAP1 POP JUMP JUMPDEST PUSH1 0x0 PUSH1 0x20 DUP3 DUP5 SUB SLT ISZERO PUSH2 0xA78 JUMPI PUSH2 0xA77 PUSH2 0x858 JUMP JUMPDEST JUMPDEST PUSH1 0x0 DUP3 ADD CALLDATALOAD PUSH8 0xFFFFFFFFFFFFFFFF DUP2 GT ISZERO PUSH2 0xA96 JUMPI PUSH2 0xA95 PUSH2 0x85D JUMP JUMPDEST JUMPDEST PUSH2 0xAA2 DUP5 DUP3 DUP6 ADD PUSH2 0x9D8 JUMP JUMPDEST SWAP2 POP POP SWAP3 SWAP2 POP POP JUMP JUMPDEST PUSH1 0x0 DUP2 MLOAD SWAP1 POP SWAP2 SWAP1 POP JUMP JUMPDEST PUSH1 0x0 DUP3 DUP3 MSTORE PUSH1 0x20 DUP3 ADD SWAP1 POP SWAP3 SWAP2 POP POP JUMP JUMPDEST PUSH1 0x0 JUMPDEST DUP4 DUP2 LT ISZERO PUSH2 0xAE5 JUMPI DUP1 DUP3 ADD MLOAD DUP2 DUP5 ADD MSTORE PUSH1 0x20 DUP2 ADD SWAP1 POP PUSH2 0xACA JUMP JUMPDEST PUSH1 0x0 DUP5 DUP5 ADD MSTORE POP POP POP POP JUMP JUMPDEST PUSH1 0x0 PUSH2 0xAFC DUP3 PUSH2 0xAAB JUMP JUMPDEST PUSH2 0xB06 DUP2 DUP6 PUSH2 0xAB6 JUMP JUMPDEST SWAP4 POP PUSH2 0xB16 DUP2 DUP6 PUSH1 0x20 DUP7 ADD PUSH2 0xAC7 JUMP JUMPDEST PUSH2 0xB1F DUP2 PUSH2 0x8CA JUMP JUMPDEST DUP5 ADD SWAP2 POP POP SWAP3 SWAP2 POP POP JUMP JUMPDEST PUSH1 0x0 PUSH1 0x20 DUP3 ADD SWAP1 POP DUP2 DUP2 SUB PUSH1 0x0 DUP4 ADD MSTORE PUSH2 0xB44 DUP2 DUP5 PUSH2 0xAF1 JUMP JUMPDEST SWAP1 POP SWAP3 SWAP2 POP POP JUMP JUMPDEST PUSH1 0x0 DUP1 PUSH1 0x40 DUP4 DUP6 SUB SLT ISZERO PUSH2 0xB63 JUMPI PUSH2 0xB62 PUSH2 0x858 JUMP JUMPDEST JUMPDEST PUSH1 0x0 DUP4 ADD CALLDATALOAD PUSH8 0xFFFFFFFFFFFFFFFF DUP2 GT ISZERO PUSH2 0xB81 JUMPI PUSH2 0xB80 PUSH2 0x85D JUMP JUMPDEST JUMPDEST PUSH2 0xB8D DUP6 DUP3 DUP7 ADD PUSH2 0x9D8 JUMP JUMPDEST SWAP3 POP POP PUSH1 0x20 PUSH2 0xB9E DUP6 DUP3 DUP7 ADD PUSH2 0x8AB JUMP JUMPDEST SWAP2 POP POP SWAP3 POP SWAP3 SWAP1 POP JUMP JUMPDEST PUSH1 0x0 DUP2 SWAP1 POP SWAP3 SWAP2 POP POP JUMP JUMPDEST PUSH32 0x41646D696E000000000000000000000000000000000000000000000000000000 PUSH1 0x0 DUP3 ADD MSTORE POP JUMP JUMPDEST PUSH1 0x0 PUSH2 0xBE9 PUSH1 0x5 DUP4 PUSH2 0xBA8 JUMP JUMPDEST SWAP2 POP PUSH2 0xBF4 DUP3 PUSH2 0xBB3 JUMP JUMPDEST PUSH1 0x5 DUP3 ADD SWAP1 POP SWAP2 SWAP1 POP JUMP JUMPDEST PUSH1 0x0 PUSH2 0xC0A DUP3 PUSH2 0xBDC JUMP JUMPDEST SWAP2 POP DUP2 SWAP1 POP SWAP2 SWAP1 POP JUMP JUMPDEST PUSH32 0x4E487B7100000000000000000000000000000000000000000000000000000000 PUSH1 0x0 MSTORE PUSH1 0x22 PUSH1 0x4 MSTORE PUSH1 0x24 PUSH1 0x0 REVERT JUMPDEST PUSH1 0x0 PUSH1 0x2 DUP3 DIV SWAP1 POP PUSH1 0x1 DUP3 AND DUP1 PUSH2 0xC5B JUMPI PUSH1 0x7F DUP3 AND SWAP2 POP JUMPDEST PUSH1 0x20 DUP3 LT DUP2 SUB PUSH2 0xC6E JUMPI PUSH2 0xC6D PUSH2 0xC14 JUMP JUMPDEST JUMPDEST POP SWAP2 SWAP1 POP JUMP JUMPDEST PUSH1 0x0 DUP2 SWAP1 POP DUP2 PUSH1 0x0 MSTORE PUSH1 0x20 PUSH1 0x0 KECCAK256 SWAP1 POP SWAP2 SWAP1 POP JUMP JUMPDEST PUSH1 0x0 DUP2 SLOAD PUSH2 0xC96 DUP2 PUSH2 0xC43 JUMP JUMPDEST PUSH2 0xCA0 DUP2 DUP7 PUSH2 0xBA8 JUMP JUMPDEST SWAP5 POP PUSH1 0x1 DUP3 AND PUSH1 0x0 DUP2 EQ PUSH2 0xCBB JUMPI PUSH1 0x1 DUP2 EQ PUSH2 0xCD0 JUMPI PUSH2 0xD03 JUMP JUMPDEST PUSH1 0xFF NOT DUP4 AND DUP7 MSTORE DUP2 ISZERO ISZERO DUP3 MUL DUP7 ADD SWAP4 POP PUSH2 0xD03 JUMP JUMPDEST PUSH2 0xCD9 DUP6 PUSH2 0xC74 JUMP JUMPDEST PUSH1 0x0 JUMPDEST DUP4 DUP2 LT ISZERO PUSH2 0xCFB JUMPI DUP2 SLOAD DUP2 DUP10 ADD MSTORE PUSH1 0x1 DUP3 ADD SWAP2 POP PUSH1 0x20 DUP2 ADD SWAP1 POP PUSH2 0xCDC JUMP JUMPDEST DUP4 DUP9 ADD SWAP6 POP POP POP JUMPDEST POP POP POP SWAP3 SWAP2 POP POP JUMP JUMPDEST PUSH1 0x0 PUSH2 0xD18 DUP3 DUP5 PUSH2 0xC89 JUMP JUMPDEST SWAP2 POP DUP2 SWAP1 POP SWAP3 SWAP2 POP POP JUMP JUMPDEST PUSH32 0x4F6E6C792041646D696E732063616E20706572666F726D207468697320616374 PUSH1 0x0 DUP3 ADD MSTORE PUSH32 0x696F6E0000000000000000000000000000000000000000000000000000000000 PUSH1 0x20 DUP3 ADD MSTORE POP JUMP JUMPDEST PUSH1 0x0 PUSH2 0xD7F PUSH1 0x23 DUP4 PUSH2 0xAB6 JUMP JUMPDEST SWAP2 POP PUSH2 0xD8A DUP3 PUSH2 0xD23 JUMP JUMPDEST PUSH1 0x40 DUP3 ADD SWAP1 POP SWAP2 SWAP1 POP JUMP JUMPDEST PUSH1 0x0 PUSH1 0x20 DUP3 ADD SWAP1 POP DUP2 DUP2 SUB PUSH1 0x0 DUP4 ADD MSTORE PUSH2 0xDAE DUP2 PUSH2 0xD72 JUMP JUMPDEST SWAP1 POP SWAP2 SWAP1 POP JUMP JUMPDEST PUSH1 0x0 PUSH1 0x20 PUSH1 0x1F DUP4 ADD DIV SWAP1 POP SWAP2 SWAP1 POP JUMP JUMPDEST PUSH1 0x0 DUP3 DUP3 SHL SWAP1 POP SWAP3 SWAP2 POP POP JUMP JUMPDEST PUSH1 0x0 PUSH1 0x8 DUP4 MUL PUSH2 0xE02 PUSH32 0xFFFFFFFFFFFFFFFFFFFFFFFFFFFFFFFFFFFFFFFFFFFFFFFFFFFFFFFFFFFFFFFF DUP3 PUSH2 0xDC5 JUMP JUMPDEST PUSH2 0xE0C DUP7 DUP4 PUSH2 0xDC5 JUMP JUMPDEST SWAP6 POP DUP1 NOT DUP5 AND SWAP4 POP DUP1 DUP7 AND DUP5 OR SWAP3 POP POP POP SWAP4 SWAP3 POP POP POP JUMP JUMPDEST PUSH1 0x0 DUP2 SWAP1 POP SWAP2 SWAP1 POP JUMP JUMPDEST PUSH1 0x0 DUP2 SWAP1 POP SWAP2 SWAP1 POP JUMP JUMPDEST PUSH1 0x0 PUSH2 0xE53 PUSH2 0xE4E PUSH2 0xE49 DUP5 PUSH2 0xE24 JUMP JUMPDEST PUSH2 0xE2E JUMP JUMPDEST PUSH2 0xE24 JUMP JUMPDEST SWAP1 POP SWAP2 SWAP1 POP JUMP JUMPDEST PUSH1 0x0 DUP2 SWAP1 POP SWAP2 SWAP1 POP JUMP JUMPDEST PUSH2 0xE6D DUP4 PUSH2 0xE38 JUMP JUMPDEST PUSH2 0xE81 PUSH2 0xE79 DUP3 PUSH2 0xE5A JUMP JUMPDEST DUP5 DUP5 SLOAD PUSH2 0xDD2 JUMP JUMPDEST DUP3 SSTORE POP POP POP POP JUMP JUMPDEST PUSH1 0x0 SWAP1 JUMP JUMPDEST PUSH2 0xE96 PUSH2 0xE89 JUMP JUMPDEST PUSH2 0xEA1 DUP2 DUP5 DUP5 PUSH2 0xE64 JUMP JUMPDEST POP POP POP JUMP JUMPDEST JUMPDEST DUP2 DUP2 LT ISZERO PUSH2 0xEC5 JUMPI PUSH2 0xEBA PUSH1 0x0 DUP3 PUSH2 0xE8E JUMP JUMPDEST PUSH1 0x1 DUP2 ADD SWAP1 POP PUSH2 0xEA7 JUMP JUMPDEST POP POP JUMP JUMPDEST PUSH1 0x1F DUP3 GT ISZERO PUSH2 0xF0A JUMPI PUSH2 0xEDB DUP2 PUSH2 0xC74 JUMP JUMPDEST PUSH2 0xEE4 DUP5 PUSH2 0xDB5 JUMP JUMPDEST DUP2 ADD PUSH1 0x20 DUP6 LT ISZERO PUSH2 0xEF3 JUMPI DUP2 SWAP1 POP JUMPDEST PUSH2 0xF07 PUSH2 0xEFF DUP6 PUSH2 0xDB5 JUMP JUMPDEST DUP4 ADD DUP3 PUSH2 0xEA6 JUMP JUMPDEST POP POP JUMPDEST POP POP POP JUMP JUMPDEST PUSH1 0x0 DUP3 DUP3 SHR SWAP1 POP SWAP3 SWAP2 POP POP JUMP JUMPDEST PUSH1 0x0 PUSH2 0xF2D PUSH1 0x0 NOT DUP5 PUSH1 0x8 MUL PUSH2 0xF0F JUMP JUMPDEST NOT DUP1 DUP4 AND SWAP2 POP POP SWAP3 SWAP2 POP POP JUMP JUMPDEST PUSH1 0x0 PUSH2 0xF46 DUP4 DUP4 PUSH2 0xF1C JUMP JUMPDEST SWAP2 POP DUP3 PUSH1 0x2 MUL DUP3 OR SWAP1 POP SWAP3 SWAP2 POP POP JUMP JUMPDEST PUSH2 0xF5F DUP3 PUSH2 0xAAB JUMP JUMPDEST PUSH8 0xFFFFFFFFFFFFFFFF DUP2 GT ISZERO PUSH2 0xF78 JUMPI PUSH2 0xF77 PUSH2 0x8DB JUMP JUMPDEST JUMPDEST PUSH2 0xF82 DUP3 SLOAD PUSH2 0xC43 JUMP JUMPDEST PUSH2 0xF8D DUP3 DUP3 DUP6 PUSH2 0xEC9 JUMP JUMPDEST PUSH1 0x0 PUSH1 0x20 SWAP1 POP PUSH1 0x1F DUP4 GT PUSH1 0x1 DUP2 EQ PUSH2 0xFC0 JUMPI PUSH1 0x0 DUP5 ISZERO PUSH2 0xFAE JUMPI DUP3 DUP8 ADD MLOAD SWAP1 POP JUMPDEST PUSH2 0xFB8 DUP6 DUP3 PUSH2 0xF3A JUMP JUMPDEST DUP7 SSTORE POP PUSH2 0x1020 JUMP JUMPDEST PUSH1 0x1F NOT DUP5 AND PUSH2 0xFCE DUP7 PUSH2 0xC74 JUMP JUMPDEST PUSH1 0x0 JUMPDEST DUP3 DUP2 LT ISZERO PUSH2 0xFF6 JUMPI DUP5 DUP10 ADD MLOAD DUP3 SSTORE PUSH1 0x1 DUP3 ADD SWAP2 POP PUSH1 0x20 DUP6 ADD SWAP5 POP PUSH1 0x20 DUP2 ADD SWAP1 POP PUSH2 0xFD1 JUMP JUMPDEST DUP7 DUP4 LT ISZERO PUSH2 0x1013 JUMPI DUP5 DUP10 ADD MLOAD PUSH2 0x100F PUSH1 0x1F DUP10 AND DUP3 PUSH2 0xF1C JUMP JUMPDEST DUP4 SSTORE POP JUMPDEST PUSH1 0x1 PUSH1 0x2 DUP9 MUL ADD DUP9 SSTORE POP POP POP JUMPDEST POP POP POP POP POP POP JUMP JUMPDEST PUSH2 0x1031 DUP2 PUSH2 0x882 JUMP JUMPDEST DUP3 MSTORE POP POP JUMP JUMPDEST PUSH1 0x0 PUSH1 0x40 DUP3 ADD SWAP1 POP PUSH2 0x104C PUSH1 0x0 DUP4 ADD DUP6 PUSH2 0x1028 JUMP JUMPDEST DUP2 DUP2 SUB PUSH1 0x20 DUP4 ADD MSTORE PUSH2 0x105E DUP2 DUP5 PUSH2 0xAF1 JUMP JUMPDEST SWAP1 POP SWAP4 SWAP3 POP POP POP JUMP JUMPDEST PUSH1 0x0 PUSH2 0x1072 DUP3 PUSH2 0xAAB JUMP JUMPDEST PUSH2 0x107C DUP2 DUP6 PUSH2 0xBA8 JUMP JUMPDEST SWAP4 POP PUSH2 0x108C DUP2 DUP6 PUSH1 0x20 DUP7 ADD PUSH2 0xAC7 JUMP JUMPDEST DUP1 DUP5 ADD SWAP2 POP POP SWAP3 SWAP2 POP POP JUMP JUMPDEST PUSH1 0x0 PUSH2 0x10A4 DUP3 DUP5 PUSH2 0x1067 JUMP JUMPDEST SWAP2 POP DUP2 SWAP1 POP SWAP3 SWAP2 POP POP JUMP JUMPDEST PUSH32 0x46696C6520646F6573206E6F7420657869737400000000000000000000000000 PUSH1 0x0 DUP3 ADD MSTORE POP JUMP JUMPDEST PUSH1 0x0 PUSH2 0x10E5 PUSH1 0x13 DUP4 PUSH2 0xAB6 JUMP JUMPDEST SWAP2 POP PUSH2 0x10F0 DUP3 PUSH2 0x10AF JUMP JUMPDEST PUSH1 0x20 DUP3 ADD SWAP1 POP SWAP2 SWAP1 POP JUMP JUMPDEST PUSH1 0x0 PUSH1 0x20 DUP3 ADD SWAP1 POP DUP2 DUP2 SUB PUSH1 0x0 DUP4 ADD MSTORE PUSH2 0x1114 DUP2 PUSH2 0x10D8 JUMP JUMPDEST SWAP1 POP SWAP2 SWAP1 POP JUMP JUMPDEST PUSH32 0x4163636573732064656E69656400000000000000000000000000000000000000 PUSH1 0x0 DUP3 ADD MSTORE POP JUMP JUMPDEST PUSH1 0x0 PUSH2 0x1151 PUSH1 0xD DUP4 PUSH2 0xAB6 JUMP JUMPDEST SWAP2 POP PUSH2 0x115C DUP3 PUSH2 0x111B JUMP JUMPDEST PUSH1 0x20 DUP3 ADD SWAP1 POP SWAP2 SWAP1 POP JUMP JUMPDEST PUSH1 0x0 PUSH1 0x20 DUP3 ADD SWAP1 POP DUP2 DUP2 SUB PUSH1 0x0 DUP4 ADD MSTORE PUSH2 0x1180 DUP2 PUSH2 0x1144 JUMP JUMPDEST SWAP1 POP SWAP2 SWAP1 POP JUMP JUMPDEST PUSH32 0x55736572206E6F74207265676973746572656400000000000000000000000000 PUSH1 0x0 DUP3 ADD MSTORE POP JUMP JUMPDEST PUSH1 0x0 PUSH2 0x11BD PUSH1 0x13 DUP4 PUSH2 0xAB6 JUMP JUMPDEST SWAP2 POP PUSH2 0x11C8 DUP3 PUSH2 0x1187 JUMP JUMPDEST PUSH1 0x20 DUP3 ADD SWAP1 POP SWAP2 SWAP1 POP JUMP JUMPDEST PUSH1 0x0 PUSH1 0x20 DUP3 ADD SWAP1 POP DUP2 DUP2 SUB PUSH1 0x0 DUP4 ADD MSTORE PUSH2 0x11EC DUP2 PUSH2 0x11B0 JUMP JUMPDEST SWAP1 POP SWAP2 SWAP1 POP JUMP JUMPDEST PUSH32 0x46696C6520616C72656164792065786973747300000000000000000000000000 PUSH1 0x0 DUP3 ADD MSTORE POP JUMP JUMPDEST PUSH1 0x0 PUSH2 0x1229 PUSH1 0x13 DUP4 PUSH2 0xAB6 JUMP JUMPDEST SWAP2 POP PUSH2 0x1234 DUP3 PUSH2 0x11F3 JUMP JUMPDEST PUSH1 0x20 DUP3 ADD SWAP1 POP SWAP2 SWAP1 POP JUMP JUMPDEST PUSH1 0x0 PUSH1 0x20 DUP3 ADD SWAP1 POP DUP2 DUP2 SUB PUSH1 0x0 DUP4 ADD MSTORE PUSH2 0x1258 DUP2 PUSH2 0x121C JUMP JUMPDEST SWAP1 POP SWAP2 SWAP1 POP JUMP JUMPDEST PUSH1 0x0 PUSH1 0x40 DUP3 ADD SWAP1 POP DUP2 DUP2 SUB PUSH1 0x0 DUP4 ADD MSTORE PUSH2 0x1279 DUP2 DUP6 PUSH2 0xAF1 JUMP JUMPDEST SWAP1 POP PUSH2 0x1288 PUSH1 0x20 DUP4 ADD DUP5 PUSH2 0x1028 JUMP JUMPDEST SWAP4 SWAP3 POP POP POP JUMP JUMPDEST PUSH32 0x4F6E6C79206F776E65722063616E206772616E74206163636573730000000000 PUSH1 0x0 DUP3 ADD MSTORE POP JUMP JUMPDEST PUSH1 0x0 PUSH2 0x12C5 PUSH1 0x1B DUP4 PUSH2 0xAB6 JUMP JUMPDEST SWAP2 POP PUSH2 0x12D0 DUP3 PUSH2 0x128F JUMP JUMPDEST PUSH1 0x20 DUP3 ADD SWAP1 POP SWAP2 SWAP1 POP JUMP JUMPDEST PUSH1 0x0 PUSH1 0x20 DUP3 ADD SWAP1 POP DUP2 DUP2 SUB PUSH1 0x0 DUP4 ADD MSTORE PUSH2 0x12F4 DUP2 PUSH2 0x12B8 JUMP JUMPDEST SWAP1 POP SWAP2 SWAP1 POP JUMP INVALID LOG2 PUSH5 0x6970667358 0x22 SLT KECCAK256 ISZERO 0xC6 0xCA DUP13 0x4E 0xCA SWAP9 0xDE 0xC7 0x29 CALL 0xE0 MLOAD 0x24 0x5D DUP10 0xDC SGT 0xA6 0xAE SWAP6 MSTORE8 0xE0 SDIV 0xC8 PUSH26 0x9EC041879DD364736F6C63430008130033000000000000000000 "},"methodIdentifiers":{"getFile(string)":"e0876aa8","grantAccess(string,address)":"f37c215e","registerUser(address,string)":"0ea126f9","storeFile(string)":"e602406a"}}}}}