{
  "_format": "hh-sol-artifact-1",
  "contractName": "SecureFileTransfer",
  "sourceName": "contracts/SecureFileTransfer.sol",
  "abi": [
    {
      "anonymous": false,
      "inputs": [
        {
          "indexed": false,
          "internalType": "string",
          "name": "cid",
          "type": "string"
        },
        {
          "indexed": false,
          "internalType": "address",
          "name": "grantedTo",
          "type": "address"
        }
      ],
      "name": "AccessGranted",
      "type": "event"
    },
    {
      "anonymous": false,
      "inputs": [
        {
          "indexed": false,
          "internalType": "string",
          "name": "cid",
          "type": "string"
        },
        {
          "indexed": false,
          "internalType": "address",
          "name": "owner",
          "type": "address"
        }
      ],
      "name": "FileStored",
      "type": "event"
    },
    {
      "anonymous": false,
      "inputs": [
        {
          "indexed": false,
          "internalType": "address",
          "name": "user",
          "type": "address"
        },
        {
          "indexed": false,
          "internalType": "string",
          "name": "role",
          "type": "string"
        }
      ],
      "name": "UserRegistered",
      "type": "event"
    },
    {
      "inputs": [
        {
          "internalType": "string",
          "name": "_cid",
          "type": "string"
        }
      ],
      "name": "getFile",
      "outputs": [
        {
          "internalType": "string",
          "name": "",
          "type": "string"
        }
      ],
      "stateMutability": "view",
      "type": "function"
    },
    {
      "inputs": [
        {
          "internalType": "string",
          "name": "_cid",
          "type": "string"
        },
        {
          "internalType": "address",
          "name": "_recipient",
          "type": "address"
        }
      ],
      "name": "grantAccess",
      "outputs": [],
      "stateMutability": "nonpayable",
      "type": "function"
    },
    {
      "inputs": [
        {
          "internalType": "address",
          "name": "_user",
          "type": "address"
        },
        {
          "internalType": "string",
          "name": "_role",
          "type": "string"
        }
      ],
      "name": "registerUser",
      "outputs": [],
      "stateMutability": "nonpayable",
      "type": "function"
    },
    {
      "inputs": [
        {
          "internalType": "string",
          "name": "_cid",
          "type": "string"
        }
      ],
      "name": "storeFile",
      "outputs": [],
      "stateMutability": "nonpayable",
      "type": "function"
    }
  ],
  "bytecode": "0x608060405234801561001057600080fd5b50611331806100206000396000f3fe608060405234801561001057600080fd5b506004361061004c5760003560e01c80630ea126f914610051578063e0876aa81461006d578063e602406a1461009d578063f37c215e146100b9575b600080fd5b61006b60048036038101906100669190610a06565b6100d5565b005b61008760048036038101906100829190610a62565b61026f565b6040516100949190610b2a565b60405180910390f35b6100b760048036038101906100b29190610a62565b61043c565b005b6100d360048036038101906100ce9190610b4c565b61067c565b005b6040516020016100e490610bff565b60405160208183030381529060405280519060200120600160003373ffffffffffffffffffffffffffffffffffffffff1673ffffffffffffffffffffffffffffffffffffffff16815260200190815260200160002060000160405160200161014c9190610d0c565b60405160208183030381529060405280519060200120146101a2576040517f08c379a000000000000000000000000000000000000000000000000000000000815260040161019990610d95565b60405180910390fd5b604051806040016040528082815260200160011515815250600160008473ffffffffffffffffffffffffffffffffffffffff1673ffffffffffffffffffffffffffffffffffffffff168152602001908152602001600020600082015181600001908161020e9190610f56565b5060208201518160010160006101000a81548160ff0219169083151502179055509050507f48cac28ad4dc618e15f4c2dd5e97751182f166de97b25618318b2112aa951a2f8282604051610263929190611037565b60405180910390a15050565b6060600080836040516102829190611098565b9081526020016040518091039020600001805461029e90610c43565b9050036102e0576040517f08c379a00000000000000000000000000000000000000000000000000000000081526004016102d7906110fb565b60405180910390fd5b6000826040516102f09190611098565b908152602001604051809103902060020160003373ffffffffffffffffffffffffffffffffffffffff1673ffffffffffffffffffffffffffffffffffffffff16815260200190815260200160002060009054906101000a900460ff1661038b576040517f08c379a000000000000000000000000000000000000000000000000000000000815260040161038290611167565b60405180910390fd5b60008260405161039b9190611098565b908152602001604051809103902060000180546103b790610c43565b80601f01602080910402602001604051908101604052809291908181526020018280546103e390610c43565b80156104305780601f1061040557610100808354040283529160200191610430565b820191906000526020600020905b81548152906001019060200180831161041357829003601f168201915b50505050509050919050565b600160003373ffffffffffffffffffffffffffffffffffffffff1673ffffffffffffffffffffffffffffffffffffffff16815260200190815260200160002060010160009054906101000a900460ff166104cb576040517f08c379a00000000000000000000000000000000000000000000000000000000081526004016104c2906111d3565b60405180910390fd5b600080826040516104dc9190611098565b908152602001604051809103902060000180546104f890610c43565b90501461053a576040517f08c379a00000000000000000000000000000000000000000000000000000000081526004016105319061123f565b60405180910390fd5b8060008260405161054b9190611098565b908152602001604051809103902060000190816105689190610f56565b503360008260405161057a9190611098565b908152602001604051809103902060010160006101000a81548173ffffffffffffffffffffffffffffffffffffffff021916908373ffffffffffffffffffffffffffffffffffffffff16021790555060016000826040516105db9190611098565b908152602001604051809103902060020160003373ffffffffffffffffffffffffffffffffffffffff1673ffffffffffffffffffffffffffffffffffffffff16815260200190815260200160002060006101000a81548160ff0219169083151502179055507fd54c01e3d063d4ead7a8b91010455a57752a2bc49d8794268b36b1f67aa30546813360405161067192919061125f565b60405180910390a150565b6000808360405161068d9190611098565b908152602001604051809103902060000180546106a990610c43565b9050036106eb576040517f08c379a00000000000000000000000000000000000000000000000000000000081526004016106e2906110fb565b60405180910390fd5b6000826040516106fb9190611098565b908152602001604051809103902060010160009054906101000a900473ffffffffffffffffffffffffffffffffffffffff1673ffffffffffffffffffffffffffffffffffffffff163373ffffffffffffffffffffffffffffffffffffffff161461079a576040517f08c379a0000000000000000000000000000000000000000000000000000000008152600401610791906112db565b60405180910390fd5b60016000836040516107ac9190611098565b908152602001604051809103902060020160008373ffffffffffffffffffffffffffffffffffffffff1673ffffffffffffffffffffffffffffffffffffffff16815260200190815260200160002060006101000a81548160ff0219169083151502179055507f780f596ecb91e1e030f57631a828b4c1f227615c1e11422248348930f6d2160c828260405161084292919061125f565b60405180910390a15050565b6000604051905090565b600080fd5b600080fd5b600073ffffffffffffffffffffffffffffffffffffffff82169050919050565b600061088d82610862565b9050919050565b61089d81610882565b81146108a857600080fd5b50565b6000813590506108ba81610894565b92915050565b600080fd5b600080fd5b6000601f19601f8301169050919050565b7f4e487b7100000000000000000000000000000000000000000000000000000000600052604160045260246000fd5b610913826108ca565b810181811067ffffffffffffffff82111715610932576109316108db565b5b80604052505050565b600061094561084e565b9050610951828261090a565b919050565b600067ffffffffffffffff821115610971576109706108db565b5b61097a826108ca565b9050602081019050919050565b82818337600083830152505050565b60006109a96109a484610956565b61093b565b9050828152602081018484840111156109c5576109c46108c5565b5b6109d0848285610987565b509392505050565b600082601f8301126109ed576109ec6108c0565b5b81356109fd848260208601610996565b91505092915050565b60008060408385031215610a1d57610a1c610858565b5b6000610a2b858286016108ab565b925050602083013567ffffffffffffffff811115610a4c57610a4b61085d565b5b610a58858286016109d8565b9150509250929050565b600060208284031215610a7857610a77610858565b5b600082013567ffffffffffffffff811115610a9657610a9561085d565b5b610aa2848285016109d8565b91505092915050565b600081519050919050565b600082825260208201905092915050565b60005b83811015610ae5578082015181840152602081019050610aca565b60008484015250505050565b6000610afc82610aab565b610b068185610ab6565b9350610b16818560208601610ac7565b610b1f816108ca565b840191505092915050565b60006020820190508181036000830152610b448184610af1565b905092915050565b60008060408385031215610b6357610b62610858565b5b600083013567ffffffffffffffff811115610b8157610b8061085d565b5b610b8d858286016109d8565b9250506020610b9e858286016108ab565b9150509250929050565b600081905092915050565b7f41646d696e000000000000000000000000000000000000000000000000000000600082015250565b6000610be9600583610ba8565b9150610bf482610bb3565b600582019050919050565b6000610c0a82610bdc565b9150819050919050565b7f4e487b7100000000000000000000000000000000000000000000000000000000600052602260045260246000fd5b60006002820490506001821680610c5b57607f821691505b602082108103610c6e57610c6d610c14565b5b50919050565b60008190508160005260206000209050919050565b60008154610c9681610c43565b610ca08186610ba8565b94506001821660008114610cbb5760018114610cd057610d03565b60ff1983168652811515820286019350610d03565b610cd985610c74565b60005b83811015610cfb57815481890152600182019150602081019050610cdc565b838801955050505b50505092915050565b6000610d188284610c89565b915081905092915050565b7f4f6e6c792041646d696e732063616e20706572666f726d20746869732061637460008201527f696f6e0000000000000000000000000000000000000000000000000000000000602082015250565b6000610d7f602383610ab6565b9150610d8a82610d23565b604082019050919050565b60006020820190508181036000830152610dae81610d72565b9050919050565b60006020601f8301049050919050565b600082821b905092915050565b600060088302610e027fffffffffffffffffffffffffffffffffffffffffffffffffffffffffffffffff82610dc5565b610e0c8683610dc5565b95508019841693508086168417925050509392505050565b6000819050919050565b6000819050919050565b6000610e53610e4e610e4984610e24565b610e2e565b610e24565b9050919050565b6000819050919050565b610e6d83610e38565b610e81610e7982610e5a565b848454610dd2565b825550505050565b600090565b610e96610e89565b610ea1818484610e64565b505050565b5b81811015610ec557610eba600082610e8e565b600181019050610ea7565b5050565b601f821115610f0a57610edb81610c74565b610ee484610db5565b81016020851015610ef3578190505b610f07610eff85610db5565b830182610ea6565b50505b505050565b600082821c905092915050565b6000610f2d60001984600802610f0f565b1980831691505092915050565b6000610f468383610f1c565b9150826002028217905092915050565b610f5f82610aab565b67ffffffffffffffff811115610f7857610f776108db565b5b610f828254610c43565b610f8d828285610ec9565b600060209050601f831160018114610fc05760008415610fae578287015190505b610fb88582610f3a565b865550611020565b601f198416610fce86610c74565b60005b82811015610ff657848901518255600182019150602085019450602081019050610fd1565b86831015611013578489015161100f601f891682610f1c565b8355505b6001600288020188555050505b505050505050565b61103181610882565b82525050565b600060408201905061104c6000830185611028565b818103602083015261105e8184610af1565b90509392505050565b600061107282610aab565b61107c8185610ba8565b935061108c818560208601610ac7565b80840191505092915050565b60006110a48284611067565b915081905092915050565b7f46696c6520646f6573206e6f7420657869737400000000000000000000000000600082015250565b60006110e5601383610ab6565b91506110f0826110af565b602082019050919050565b60006020820190508181036000830152611114816110d8565b9050919050565b7f4163636573732064656e69656400000000000000000000000000000000000000600082015250565b6000611151600d83610ab6565b915061115c8261111b565b602082019050919050565b6000602082019050818103600083015261118081611144565b9050919050565b7f55736572206e6f74207265676973746572656400000000000000000000000000600082015250565b60006111bd601383610ab6565b91506111c882611187565b602082019050919050565b600060208201905081810360008301526111ec816111b0565b9050919050565b7f46696c6520616c72656164792065786973747300000000000000000000000000600082015250565b6000611229601383610ab6565b9150611234826111f3565b602082019050919050565b600060208201905081810360008301526112588161121c565b9050919050565b600060408201905081810360008301526112798185610af1565b90506112886020830184611028565b9392505050565b7f4f6e6c79206f776e65722063616e206772616e74206163636573730000000000600082015250565b60006112c5601b83610ab6565b91506112d08261128f565b602082019050919050565b600060208201905081810360008301526112f4816112b8565b905091905056fea264697066735822122015c6ca8c4eca98dec729f1e051245d89dc13a6ae9553e005c8799ec041879dd364736f6c63430008130033",
  "linkReferences": {},
  "deployedLinkReferences": {}
}